{
	"contracts/WhileLoop.sol": {
		"Loop": {
			"abi": [
				{
					"inputs": [],
					"name": "loop",
					"outputs": [],
					"stateMutability": "nonpayable",
					"type": "function"
				}
			],
			"devdoc": {
				"kind": "dev",
				"methods": {},
				"version": 1
			},
			"evm": {
				"assembly": "    /* \"contracts/WhileLoop.sol\":63:374  contract Loop {... */\n  mstore(0x40, 0x80)\n  callvalue\n  dup1\n  iszero\n  tag_1\n  jumpi\n  0x00\n  dup1\n  revert\ntag_1:\n  pop\n  dataSize(sub_0)\n  dup1\n  dataOffset(sub_0)\n  0x00\n  codecopy\n  0x00\n  return\nstop\n\nsub_0: assembly {\n        /* \"contracts/WhileLoop.sol\":63:374  contract Loop {... */\n      mstore(0x40, 0x80)\n      callvalue\n      dup1\n      iszero\n      tag_1\n      jumpi\n      0x00\n      dup1\n      revert\n    tag_1:\n      pop\n      jumpi(tag_2, lt(calldatasize, 0x04))\n      shr(0xe0, calldataload(0x00))\n      dup1\n      0xa92100cb\n      eq\n      tag_3\n      jumpi\n    tag_2:\n      0x00\n      dup1\n      revert\n        /* \"contracts/WhileLoop.sol\":84:371  function loop() public {... */\n    tag_3:\n      tag_4\n      tag_5\n      jump\t// in\n    tag_4:\n      stop\n    tag_5:\n        /* \"contracts/WhileLoop.sol\":122:131  uint256 i */\n      0x00\n        /* \"contracts/WhileLoop.sol\":118:291  for(uint256 i = 0; i < 10; i++){... */\n    tag_7:\n        /* \"contracts/WhileLoop.sol\":141:143  10 */\n      0x0a\n        /* \"contracts/WhileLoop.sol\":137:138  i */\n      dup2\n        /* \"contracts/WhileLoop.sol\":137:143  i < 10 */\n      lt\n        /* \"contracts/WhileLoop.sol\":118:291  for(uint256 i = 0; i < 10; i++){... */\n      iszero\n      tag_8\n      jumpi\n        /* \"contracts/WhileLoop.sol\":171:172  3 */\n      0x03\n        /* \"contracts/WhileLoop.sol\":167:168  i */\n      dup2\n        /* \"contracts/WhileLoop.sol\":167:172  i ==3 */\n      sub\n        /* \"contracts/WhileLoop.sol\":164:216  if(i ==3){... */\n      iszero\n        /* \"contracts/WhileLoop.sol\":192:200  continue */\n      tag_9\n        /* \"contracts/WhileLoop.sol\":164:216  if(i ==3){... */\n      jumpi\n        /* \"contracts/WhileLoop.sol\":238:239  5 */\n      0x05\n        /* \"contracts/WhileLoop.sol\":233:234  i */\n      dup2\n        /* \"contracts/WhileLoop.sol\":233:239  i == 5 */\n      sub\n        /* \"contracts/WhileLoop.sol\":230:280  if(i == 5){... */\n      iszero\n        /* \"contracts/WhileLoop.sol\":259:264  break */\n      tag_8\n        /* \"contracts/WhileLoop.sol\":230:280  if(i == 5){... */\n      jumpi\n        /* \"contracts/WhileLoop.sol\":118:291  for(uint256 i = 0; i < 10; i++){... */\n    tag_9:\n        /* \"contracts/WhileLoop.sol\":145:148  i++ */\n      dup1\n      dup1\n      0x01\n      add\n      swap2\n      pop\n      pop\n        /* \"contracts/WhileLoop.sol\":118:291  for(uint256 i = 0; i < 10; i++){... */\n      jump(tag_7)\n    tag_8:\n      pop\n        /* \"contracts/WhileLoop.sol\":301:310  uint256 j */\n      0x00\n        /* \"contracts/WhileLoop.sol\":321:364  while(j < 10){... */\n    tag_12:\n        /* \"contracts/WhileLoop.sol\":331:333  10 */\n      0x0a\n        /* \"contracts/WhileLoop.sol\":327:328  j */\n      dup2\n        /* \"contracts/WhileLoop.sol\":327:333  j < 10 */\n      lt\n        /* \"contracts/WhileLoop.sol\":321:364  while(j < 10){... */\n      iszero\n      tag_13\n      jumpi\n        /* \"contracts/WhileLoop.sol\":349:352  j++ */\n      dup1\n      dup1\n      tag_14\n      swap1\n      tag_15\n      jump\t// in\n    tag_14:\n      swap2\n      pop\n      pop\n        /* \"contracts/WhileLoop.sol\":321:364  while(j < 10){... */\n      jump(tag_12)\n    tag_13:\n        /* \"contracts/WhileLoop.sol\":107:371  {... */\n      pop\n        /* \"contracts/WhileLoop.sol\":84:371  function loop() public {... */\n      jump\t// out\n        /* \"#utility.yul\":7:187   */\n    tag_16:\n        /* \"#utility.yul\":55:132   */\n      0x4e487b7100000000000000000000000000000000000000000000000000000000\n        /* \"#utility.yul\":52:53   */\n      0x00\n        /* \"#utility.yul\":45:133   */\n      mstore\n        /* \"#utility.yul\":152:156   */\n      0x11\n        /* \"#utility.yul\":149:150   */\n      0x04\n        /* \"#utility.yul\":142:157   */\n      mstore\n        /* \"#utility.yul\":176:180   */\n      0x24\n        /* \"#utility.yul\":173:174   */\n      0x00\n        /* \"#utility.yul\":166:181   */\n      revert\n        /* \"#utility.yul\":193:270   */\n    tag_17:\n        /* \"#utility.yul\":230:237   */\n      0x00\n        /* \"#utility.yul\":259:264   */\n      dup2\n        /* \"#utility.yul\":248:264   */\n      swap1\n      pop\n        /* \"#utility.yul\":193:270   */\n      swap2\n      swap1\n      pop\n      jump\t// out\n        /* \"#utility.yul\":276:509   */\n    tag_15:\n        /* \"#utility.yul\":315:318   */\n      0x00\n        /* \"#utility.yul\":338:362   */\n      tag_22\n        /* \"#utility.yul\":356:361   */\n      dup3\n        /* \"#utility.yul\":338:362   */\n      tag_17\n      jump\t// in\n    tag_22:\n        /* \"#utility.yul\":329:362   */\n      swap2\n      pop\n        /* \"#utility.yul\":384:450   */\n      0xffffffffffffffffffffffffffffffffffffffffffffffffffffffffffffffff\n        /* \"#utility.yul\":377:382   */\n      dup3\n        /* \"#utility.yul\":374:451   */\n      sub\n        /* \"#utility.yul\":371:474   */\n      tag_23\n      jumpi\n        /* \"#utility.yul\":454:472   */\n      tag_24\n      tag_16\n      jump\t// in\n    tag_24:\n        /* \"#utility.yul\":371:474   */\n    tag_23:\n        /* \"#utility.yul\":501:502   */\n      0x01\n        /* \"#utility.yul\":494:499   */\n      dup3\n        /* \"#utility.yul\":490:503   */\n      add\n        /* \"#utility.yul\":483:503   */\n      swap1\n      pop\n        /* \"#utility.yul\":276:509   */\n      swap2\n      swap1\n      pop\n      jump\t// out\n\n    auxdata: 0xa264697066735822122001a128b4efa95b45157fd2f4cf5151b4a2b1db3973de49626c9cddc0d4da6d9f64736f6c634300081a0033\n}\n",
				"bytecode": {
					"linkReferences": {},
					"object": "6080604052348015600e575f80fd5b506101258061001c5f395ff3fe6080604052348015600e575f80fd5b50600436106026575f3560e01c8063a92100cb14602a575b5f80fd5b60306032565b005b5f5b600a8110156059576003810315604d5760058103156059575b80806001019150506034565b505f5b600a8110156074578080606d9060ad565b915050605c565b50565b7f4e487b71000000000000000000000000000000000000000000000000000000005f52601160045260245ffd5b5f819050919050565b5f60b58260a4565b91507fffffffffffffffffffffffffffffffffffffffffffffffffffffffffffffffff820360e45760e36077565b5b60018201905091905056fea264697066735822122001a128b4efa95b45157fd2f4cf5151b4a2b1db3973de49626c9cddc0d4da6d9f64736f6c634300081a0033",
					"opcodes": "PUSH1 0x80 PUSH1 0x40 MSTORE CALLVALUE DUP1 ISZERO PUSH1 0xE JUMPI PUSH0 DUP1 REVERT JUMPDEST POP PUSH2 0x125 DUP1 PUSH2 0x1C PUSH0 CODECOPY PUSH0 RETURN INVALID PUSH1 0x80 PUSH1 0x40 MSTORE CALLVALUE DUP1 ISZERO PUSH1 0xE JUMPI PUSH0 DUP1 REVERT JUMPDEST POP PUSH1 0x4 CALLDATASIZE LT PUSH1 0x26 JUMPI PUSH0 CALLDATALOAD PUSH1 0xE0 SHR DUP1 PUSH4 0xA92100CB EQ PUSH1 0x2A JUMPI JUMPDEST PUSH0 DUP1 REVERT JUMPDEST PUSH1 0x30 PUSH1 0x32 JUMP JUMPDEST STOP JUMPDEST PUSH0 JUMPDEST PUSH1 0xA DUP2 LT ISZERO PUSH1 0x59 JUMPI PUSH1 0x3 DUP2 SUB ISZERO PUSH1 0x4D JUMPI PUSH1 0x5 DUP2 SUB ISZERO PUSH1 0x59 JUMPI JUMPDEST DUP1 DUP1 PUSH1 0x1 ADD SWAP2 POP POP PUSH1 0x34 JUMP JUMPDEST POP PUSH0 JUMPDEST PUSH1 0xA DUP2 LT ISZERO PUSH1 0x74 JUMPI DUP1 DUP1 PUSH1 0x6D SWAP1 PUSH1 0xAD JUMP JUMPDEST SWAP2 POP POP PUSH1 0x5C JUMP JUMPDEST POP JUMP JUMPDEST PUSH32 0x4E487B7100000000000000000000000000000000000000000000000000000000 PUSH0 MSTORE PUSH1 0x11 PUSH1 0x4 MSTORE PUSH1 0x24 PUSH0 REVERT JUMPDEST PUSH0 DUP2 SWAP1 POP SWAP2 SWAP1 POP JUMP JUMPDEST PUSH0 PUSH1 0xB5 DUP3 PUSH1 0xA4 JUMP JUMPDEST SWAP2 POP PUSH32 0xFFFFFFFFFFFFFFFFFFFFFFFFFFFFFFFFFFFFFFFFFFFFFFFFFFFFFFFFFFFFFFFF DUP3 SUB PUSH1 0xE4 JUMPI PUSH1 0xE3 PUSH1 0x77 JUMP JUMPDEST JUMPDEST PUSH1 0x1 DUP3 ADD SWAP1 POP SWAP2 SWAP1 POP JUMP INVALID LOG2 PUSH5 0x6970667358 0x22 SLT KECCAK256 ADD LOG1 0x28 0xB4 0xEF 0xA9 JUMPDEST GASLIMIT ISZERO PUSH32 0xD2F4CF5151B4A2B1DB3973DE49626C9CDDC0D4DA6D9F64736F6C634300081A00 CALLER "
				},
				"gasEstimates": {
					"creation": {
						"codeDepositCost": "58600",
						"executionCost": "109",
						"totalCost": "58709"
					},
					"external": {
						"loop()": "infinite"
					}
				},
				"methodIdentifiers": {
					"loop()": "a92100cb"
				}
			},
			"storageLayout": {
				"storage": [],
				"types": null
			},
			"userdoc": {
				"kind": "user",
				"methods": {},
				"version": 1
			}
		}
	}
}