{
	"data": {
		"bytecode": {
			"linkReferences": {},
			"object": "608060405260015f5560015f541460015f6101000a81548160ff021916908315150217905550633b9aca00600255633b9aca006002541460035f6101000a81548160ff021916908315150217905550670de0b6b3a7640000600455670de0b6b3a76400006004541460055f6101000a81548160ff0219169083151502179055503480156089575f80fd5b506101f9806100975f395ff3fe608060405234801561000f575f80fd5b5060043610610060575f3560e01c80634fb2e0be146100645780635d06aea4146100825780638e50b65c146100a0578063cf0f5d29146100be578063d297a89f146100dc578063e683a422146100fa575b5f80fd5b61006c610118565b6040516100799190610177565b60405180910390f35b61008a61011d565b60405161009791906101aa565b60405180910390f35b6100a861012f565b6040516100b59190610177565b60405180910390f35b6100c6610135565b6040516100d391906101aa565b60405180910390f35b6100e4610147565b6040516100f19190610177565b60405180910390f35b61010261014d565b60405161010f91906101aa565b60405180910390f35b5f5481565b60015f9054906101000a900460ff1681565b60025481565b60055f9054906101000a900460ff1681565b60045481565b60035f9054906101000a900460ff1681565b5f819050919050565b6101718161015f565b82525050565b5f60208201905061018a5f830184610168565b92915050565b5f8115159050919050565b6101a481610190565b82525050565b5f6020820190506101bd5f83018461019b565b9291505056fea2646970667358221220727e31d3d9c5c0eb6869f9bdc59474c0202e902a13ce68dbd99d433e9ae45af264736f6c634300081a0033",
			"opcodes": "PUSH1 0x80 PUSH1 0x40 MSTORE PUSH1 0x1 PUSH0 SSTORE PUSH1 0x1 PUSH0 SLOAD EQ PUSH1 0x1 PUSH0 PUSH2 0x100 EXP DUP2 SLOAD DUP2 PUSH1 0xFF MUL NOT AND SWAP1 DUP4 ISZERO ISZERO MUL OR SWAP1 SSTORE POP PUSH4 0x3B9ACA00 PUSH1 0x2 SSTORE PUSH4 0x3B9ACA00 PUSH1 0x2 SLOAD EQ PUSH1 0x3 PUSH0 PUSH2 0x100 EXP DUP2 SLOAD DUP2 PUSH1 0xFF MUL NOT AND SWAP1 DUP4 ISZERO ISZERO MUL OR SWAP1 SSTORE POP PUSH8 0xDE0B6B3A7640000 PUSH1 0x4 SSTORE PUSH8 0xDE0B6B3A7640000 PUSH1 0x4 SLOAD EQ PUSH1 0x5 PUSH0 PUSH2 0x100 EXP DUP2 SLOAD DUP2 PUSH1 0xFF MUL NOT AND SWAP1 DUP4 ISZERO ISZERO MUL OR SWAP1 SSTORE POP CALLVALUE DUP1 ISZERO PUSH1 0x89 JUMPI PUSH0 DUP1 REVERT JUMPDEST POP PUSH2 0x1F9 DUP1 PUSH2 0x97 PUSH0 CODECOPY PUSH0 RETURN INVALID PUSH1 0x80 PUSH1 0x40 MSTORE CALLVALUE DUP1 ISZERO PUSH2 0xF JUMPI PUSH0 DUP1 REVERT JUMPDEST POP PUSH1 0x4 CALLDATASIZE LT PUSH2 0x60 JUMPI PUSH0 CALLDATALOAD PUSH1 0xE0 SHR DUP1 PUSH4 0x4FB2E0BE EQ PUSH2 0x64 JUMPI DUP1 PUSH4 0x5D06AEA4 EQ PUSH2 0x82 JUMPI DUP1 PUSH4 0x8E50B65C EQ PUSH2 0xA0 JUMPI DUP1 PUSH4 0xCF0F5D29 EQ PUSH2 0xBE JUMPI DUP1 PUSH4 0xD297A89F EQ PUSH2 0xDC JUMPI DUP1 PUSH4 0xE683A422 EQ PUSH2 0xFA JUMPI JUMPDEST PUSH0 DUP1 REVERT JUMPDEST PUSH2 0x6C PUSH2 0x118 JUMP JUMPDEST PUSH1 0x40 MLOAD PUSH2 0x79 SWAP2 SWAP1 PUSH2 0x177 JUMP JUMPDEST PUSH1 0x40 MLOAD DUP1 SWAP2 SUB SWAP1 RETURN JUMPDEST PUSH2 0x8A PUSH2 0x11D JUMP JUMPDEST PUSH1 0x40 MLOAD PUSH2 0x97 SWAP2 SWAP1 PUSH2 0x1AA JUMP JUMPDEST PUSH1 0x40 MLOAD DUP1 SWAP2 SUB SWAP1 RETURN JUMPDEST PUSH2 0xA8 PUSH2 0x12F JUMP JUMPDEST PUSH1 0x40 MLOAD PUSH2 0xB5 SWAP2 SWAP1 PUSH2 0x177 JUMP JUMPDEST PUSH1 0x40 MLOAD DUP1 SWAP2 SUB SWAP1 RETURN JUMPDEST PUSH2 0xC6 PUSH2 0x135 JUMP JUMPDEST PUSH1 0x40 MLOAD PUSH2 0xD3 SWAP2 SWAP1 PUSH2 0x1AA JUMP JUMPDEST PUSH1 0x40 MLOAD DUP1 SWAP2 SUB SWAP1 RETURN JUMPDEST PUSH2 0xE4 PUSH2 0x147 JUMP JUMPDEST PUSH1 0x40 MLOAD PUSH2 0xF1 SWAP2 SWAP1 PUSH2 0x177 JUMP JUMPDEST PUSH1 0x40 MLOAD DUP1 SWAP2 SUB SWAP1 RETURN JUMPDEST PUSH2 0x102 PUSH2 0x14D JUMP JUMPDEST PUSH1 0x40 MLOAD PUSH2 0x10F SWAP2 SWAP1 PUSH2 0x1AA JUMP JUMPDEST PUSH1 0x40 MLOAD DUP1 SWAP2 SUB SWAP1 RETURN JUMPDEST PUSH0 SLOAD DUP2 JUMP JUMPDEST PUSH1 0x1 PUSH0 SWAP1 SLOAD SWAP1 PUSH2 0x100 EXP SWAP1 DIV PUSH1 0xFF AND DUP2 JUMP JUMPDEST PUSH1 0x2 SLOAD DUP2 JUMP JUMPDEST PUSH1 0x5 PUSH0 SWAP1 SLOAD SWAP1 PUSH2 0x100 EXP SWAP1 DIV PUSH1 0xFF AND DUP2 JUMP JUMPDEST PUSH1 0x4 SLOAD DUP2 JUMP JUMPDEST PUSH1 0x3 PUSH0 SWAP1 SLOAD SWAP1 PUSH2 0x100 EXP SWAP1 DIV PUSH1 0xFF AND DUP2 JUMP JUMPDEST PUSH0 DUP2 SWAP1 POP SWAP2 SWAP1 POP JUMP JUMPDEST PUSH2 0x171 DUP2 PUSH2 0x15F JUMP JUMPDEST DUP3 MSTORE POP POP JUMP JUMPDEST PUSH0 PUSH1 0x20 DUP3 ADD SWAP1 POP PUSH2 0x18A PUSH0 DUP4 ADD DUP5 PUSH2 0x168 JUMP JUMPDEST SWAP3 SWAP2 POP POP JUMP JUMPDEST PUSH0 DUP2 ISZERO ISZERO SWAP1 POP SWAP2 SWAP1 POP JUMP JUMPDEST PUSH2 0x1A4 DUP2 PUSH2 0x190 JUMP JUMPDEST DUP3 MSTORE POP POP JUMP JUMPDEST PUSH0 PUSH1 0x20 DUP3 ADD SWAP1 POP PUSH2 0x1BD PUSH0 DUP4 ADD DUP5 PUSH2 0x19B JUMP JUMPDEST SWAP3 SWAP2 POP POP JUMP INVALID LOG2 PUSH5 0x6970667358 0x22 SLT KECCAK256 PUSH19 0x7E31D3D9C5C0EB6869F9BDC59474C0202E902A SGT 0xCE PUSH9 0xDBD99D433E9AE45AF2 PUSH5 0x736F6C6343 STOP ADDMOD BYTE STOP CALLER "
		},
		"gasEstimates": {
			"creation": {
				"codeDepositCost": "101000",
				"executionCost": "145577",
				"totalCost": "246577"
			},
			"external": {
				"IsOneWei()": "2466",
				"isOneEther()": "2510",
				"isOneGei()": "2554",
				"oneEther()": "2491",
				"oneGwei()": "2447",
				"oneWei()": "2402"
			}
		},
		"methodIdentifiers": {
			"IsOneWei()": "5d06aea4",
			"isOneEther()": "cf0f5d29",
			"isOneGei()": "e683a422",
			"oneEther()": "d297a89f",
			"oneGwei()": "8e50b65c",
			"oneWei()": "4fb2e0be"
		}
	},
	"abi": [
		{
			"inputs": [],
			"name": "IsOneWei",
			"outputs": [
				{
					"internalType": "bool",
					"name": "",
					"type": "bool"
				}
			],
			"stateMutability": "view",
			"type": "function"
		},
		{
			"inputs": [],
			"name": "isOneEther",
			"outputs": [
				{
					"internalType": "bool",
					"name": "",
					"type": "bool"
				}
			],
			"stateMutability": "view",
			"type": "function"
		},
		{
			"inputs": [],
			"name": "isOneGei",
			"outputs": [
				{
					"internalType": "bool",
					"name": "",
					"type": "bool"
				}
			],
			"stateMutability": "view",
			"type": "function"
		},
		{
			"inputs": [],
			"name": "oneEther",
			"outputs": [
				{
					"internalType": "uint256",
					"name": "",
					"type": "uint256"
				}
			],
			"stateMutability": "view",
			"type": "function"
		},
		{
			"inputs": [],
			"name": "oneGwei",
			"outputs": [
				{
					"internalType": "uint256",
					"name": "",
					"type": "uint256"
				}
			],
			"stateMutability": "view",
			"type": "function"
		},
		{
			"inputs": [],
			"name": "oneWei",
			"outputs": [
				{
					"internalType": "uint256",
					"name": "",
					"type": "uint256"
				}
			],
			"stateMutability": "view",
			"type": "function"
		}
	]
}